:100000000C9434000C943E000C943E000C943E0082
:100010000C943E000C943E000C943E000C943E0068
:100020000C943E000C943E000C943E000C943E0058
:100030000C943E000C943E000C943E000C943E0048
:100040000C943E000C943E000C943E000C943E0038
:100050000C943E000C943E000C943E000C943E0028
:100060000C943E000C943E0011241FBECFEFD8E04C
:10007000DEBFCDBF0E9440000C9467000C940000CE
:10008000DF93CF930F92CDB7DEB7E7E2F0E01082B7
:10009000E4E2F0E08FEF8083E5E2F0E01082E6E258
:1000A000F0E08081803229F4E5E2F0E080E28083B4
:1000B000F6CFE6E2F0E08081803429F4E5E2F0E07A
:1000C00080E48083ECCFE5E2F0E01082E8CFF894A2
:0200D000FFCF60
:00000001FF
